{
  "_format": "hh-sol-artifact-1",
  "contractName": "USDT",
  "sourceName": "contracts/USDT.sol",
  "abi": [
    {
      "inputs": [],
      "stateMutability": "nonpayable",
      "type": "constructor"
    },
    {
      "inputs": [
        {
          "internalType": "address",
          "name": "spender",
          "type": "address"
        },
        {
          "internalType": "uint256",
          "name": "allowance",
          "type": "uint256"
        },
        {
          "internalType": "uint256",
          "name": "needed",
          "type": "uint256"
        }
      ],
      "name": "ERC20InsufficientAllowance",
      "type": "error"
    },
    {
      "inputs": [
        {
          "internalType": "address",
          "name": "sender",
          "type": "address"
        },
        {
          "internalType": "uint256",
          "name": "balance",
          "type": "uint256"
        },
        {
          "internalType": "uint256",
          "name": "needed",
          "type": "uint256"
        }
      ],
      "name": "ERC20InsufficientBalance",
      "type": "error"
    },
    {
      "inputs": [
        {
          "internalType": "address",
          "name": "approver",
          "type": "address"
        }
      ],
      "name": "ERC20InvalidApprover",
      "type": "error"
    },
    {
      "inputs": [
        {
          "internalType": "address",
          "name": "receiver",
          "type": "address"
        }
      ],
      "name": "ERC20InvalidReceiver",
      "type": "error"
    },
    {
      "inputs": [
        {
          "internalType": "address",
          "name": "sender",
          "type": "address"
        }
      ],
      "name": "ERC20InvalidSender",
      "type": "error"
    },
    {
      "inputs": [
        {
          "internalType": "address",
          "name": "spender",
          "type": "address"
        }
      ],
      "name": "ERC20InvalidSpender",
      "type": "error"
    },
    {
      "inputs": [
        {
          "internalType": "address",
          "name": "owner",
          "type": "address"
        }
      ],
      "name": "OwnableInvalidOwner",
      "type": "error"
    },
    {
      "inputs": [
        {
          "internalType": "address",
          "name": "account",
          "type": "address"
        }
      ],
      "name": "OwnableUnauthorizedAccount",
      "type": "error"
    },
    {
      "anonymous": false,
      "inputs": [
        {
          "indexed": true,
          "internalType": "address",
          "name": "owner",
          "type": "address"
        },
        {
          "indexed": true,
          "internalType": "address",
          "name": "spender",
          "type": "address"
        },
        {
          "indexed": false,
          "internalType": "uint256",
          "name": "value",
          "type": "uint256"
        }
      ],
      "name": "Approval",
      "type": "event"
    },
    {
      "anonymous": false,
      "inputs": [
        {
          "indexed": true,
          "internalType": "address",
          "name": "previousOwner",
          "type": "address"
        },
        {
          "indexed": true,
          "internalType": "address",
          "name": "newOwner",
          "type": "address"
        }
      ],
      "name": "OwnershipTransferred",
      "type": "event"
    },
    {
      "anonymous": false,
      "inputs": [
        {
          "indexed": true,
          "internalType": "address",
          "name": "from",
          "type": "address"
        },
        {
          "indexed": true,
          "internalType": "address",
          "name": "to",
          "type": "address"
        },
        {
          "indexed": false,
          "internalType": "uint256",
          "name": "value",
          "type": "uint256"
        }
      ],
      "name": "Transfer",
      "type": "event"
    },
    {
      "inputs": [
        {
          "internalType": "address",
          "name": "owner",
          "type": "address"
        },
        {
          "internalType": "address",
          "name": "spender",
          "type": "address"
        }
      ],
      "name": "allowance",
      "outputs": [
        {
          "internalType": "uint256",
          "name": "",
          "type": "uint256"
        }
      ],
      "stateMutability": "view",
      "type": "function"
    },
    {
      "inputs": [
        {
          "internalType": "address",
          "name": "spender",
          "type": "address"
        },
        {
          "internalType": "uint256",
          "name": "value",
          "type": "uint256"
        }
      ],
      "name": "approve",
      "outputs": [
        {
          "internalType": "bool",
          "name": "",
          "type": "bool"
        }
      ],
      "stateMutability": "nonpayable",
      "type": "function"
    },
    {
      "inputs": [
        {
          "internalType": "address",
          "name": "account",
          "type": "address"
        }
      ],
      "name": "balanceOf",
      "outputs": [
        {
          "internalType": "uint256",
          "name": "",
          "type": "uint256"
        }
      ],
      "stateMutability": "view",
      "type": "function"
    },
    {
      "inputs": [],
      "name": "decimals",
      "outputs": [
        {
          "internalType": "uint8",
          "name": "",
          "type": "uint8"
        }
      ],
      "stateMutability": "pure",
      "type": "function"
    },
    {
      "inputs": [
        {
          "internalType": "address",
          "name": "to",
          "type": "address"
        },
        {
          "internalType": "uint256",
          "name": "amount",
          "type": "uint256"
        }
      ],
      "name": "mint",
      "outputs": [],
      "stateMutability": "nonpayable",
      "type": "function"
    },
    {
      "inputs": [],
      "name": "name",
      "outputs": [
        {
          "internalType": "string",
          "name": "",
          "type": "string"
        }
      ],
      "stateMutability": "view",
      "type": "function"
    },
    {
      "inputs": [],
      "name": "owner",
      "outputs": [
        {
          "internalType": "address",
          "name": "",
          "type": "address"
        }
      ],
      "stateMutability": "view",
      "type": "function"
    },
    {
      "inputs": [],
      "name": "renounceOwnership",
      "outputs": [],
      "stateMutability": "nonpayable",
      "type": "function"
    },
    {
      "inputs": [],
      "name": "symbol",
      "outputs": [
        {
          "internalType": "string",
          "name": "",
          "type": "string"
        }
      ],
      "stateMutability": "view",
      "type": "function"
    },
    {
      "inputs": [],
      "name": "totalSupply",
      "outputs": [
        {
          "internalType": "uint256",
          "name": "",
          "type": "uint256"
        }
      ],
      "stateMutability": "view",
      "type": "function"
    },
    {
      "inputs": [
        {
          "internalType": "address",
          "name": "to",
          "type": "address"
        },
        {
          "internalType": "uint256",
          "name": "value",
          "type": "uint256"
        }
      ],
      "name": "transfer",
      "outputs": [
        {
          "internalType": "bool",
          "name": "",
          "type": "bool"
        }
      ],
      "stateMutability": "nonpayable",
      "type": "function"
    },
    {
      "inputs": [
        {
          "internalType": "address",
          "name": "from",
          "type": "address"
        },
        {
          "internalType": "address",
          "name": "to",
          "type": "address"
        },
        {
          "internalType": "uint256",
          "name": "value",
          "type": "uint256"
        }
      ],
      "name": "transferFrom",
      "outputs": [
        {
          "internalType": "bool",
          "name": "",
          "type": "bool"
        }
      ],
      "stateMutability": "nonpayable",
      "type": "function"
    },
    {
      "inputs": [
        {
          "internalType": "address",
          "name": "newOwner",
          "type": "address"
        }
      ],
      "name": "transferOwnership",
      "outputs": [],
      "stateMutability": "nonpayable",
      "type": "function"
    },
    {
      "inputs": [
        {
          "internalType": "uint256",
          "name": "faucet",
          "type": "uint256"
        }
      ],
      "name": "usdvFaucet",
      "outputs": [],
      "stateMutability": "nonpayable",
      "type": "function"
    }
  ],
  "bytecode": "0x608060405234801561001057600080fd5b50336040518060400160405280600a81526020017f54657468657220555344000000000000000000000000000000000000000000008152506040518060400160405280600481526020017f5553445400000000000000000000000000000000000000000000000000000000815250816003908161008d919061072c565b50806004908161009d919061072c565b505050600073ffffffffffffffffffffffffffffffffffffffff168173ffffffffffffffffffffffffffffffffffffffff16036101125760006040517f1e4fbdf7000000000000000000000000000000000000000000000000000000008152600401610109919061083f565b60405180910390fd5b6101218161016060201b60201c565b5061015b3061013461022660201b60201c565b600a61014091906109c9565b64174876e8006101509190610a14565b61022f60201b60201c565b610aeb565b6000600560009054906101000a900473ffffffffffffffffffffffffffffffffffffffff16905081600560006101000a81548173ffffffffffffffffffffffffffffffffffffffff021916908373ffffffffffffffffffffffffffffffffffffffff1602179055508173ffffffffffffffffffffffffffffffffffffffff168173ffffffffffffffffffffffffffffffffffffffff167f8be0079c531659141344cd1fd0a4f28419497f9722a3daafe3b4186f6b6457e060405160405180910390a35050565b60006006905090565b600073ffffffffffffffffffffffffffffffffffffffff168273ffffffffffffffffffffffffffffffffffffffff16036102a15760006040517fec442f05000000000000000000000000000000000000000000000000000000008152600401610298919061083f565b60405180910390fd5b6102b3600083836102b760201b60201c565b5050565b600073ffffffffffffffffffffffffffffffffffffffff168373ffffffffffffffffffffffffffffffffffffffff16036103095780600260008282546102fd9190610a56565b925050819055506103dc565b60008060008573ffffffffffffffffffffffffffffffffffffffff1673ffffffffffffffffffffffffffffffffffffffff16815260200190815260200160002054905081811015610395578381836040517fe450d38c00000000000000000000000000000000000000000000000000000000815260040161038c93929190610a99565b60405180910390fd5b8181036000808673ffffffffffffffffffffffffffffffffffffffff1673ffffffffffffffffffffffffffffffffffffffff16815260200190815260200160002081905550505b600073ffffffffffffffffffffffffffffffffffffffff168273ffffffffffffffffffffffffffffffffffffffff16036104255780600260008282540392505081905550610472565b806000808473ffffffffffffffffffffffffffffffffffffffff1673ffffffffffffffffffffffffffffffffffffffff168152602001908152602001600020600082825401925050819055505b8173ffffffffffffffffffffffffffffffffffffffff168373ffffffffffffffffffffffffffffffffffffffff167fddf252ad1be2c89b69c2b068fc378daa952ba7f163c4a11628f55a4df523b3ef836040516104cf9190610ad0565b60405180910390a3505050565b600081519050919050565b7f4e487b7100000000000000000000000000000000000000000000000000000000600052604160045260246000fd5b7f4e487b7100000000000000000000000000000000000000000000000000000000600052602260045260246000fd5b6000600282049050600182168061055d57607f821691505b6020821081036105705761056f610516565b5b50919050565b60008190508160005260206000209050919050565b60006020601f8301049050919050565b600082821b905092915050565b6000600883026105d87fffffffffffffffffffffffffffffffffffffffffffffffffffffffffffffffff8261059b565b6105e2868361059b565b95508019841693508086168417925050509392505050565b6000819050919050565b6000819050919050565b600061062961062461061f846105fa565b610604565b6105fa565b9050919050565b6000819050919050565b6106438361060e565b61065761064f82610630565b8484546105a8565b825550505050565b600090565b61066c61065f565b61067781848461063a565b505050565b5b8181101561069b57610690600082610664565b60018101905061067d565b5050565b601f8211156106e0576106b181610576565b6106ba8461058b565b810160208510156106c9578190505b6106dd6106d58561058b565b83018261067c565b50505b505050565b600082821c905092915050565b6000610703600019846008026106e5565b1980831691505092915050565b600061071c83836106f2565b9150826002028217905092915050565b610735826104dc565b67ffffffffffffffff81111561074e5761074d6104e7565b5b6107588254610545565b61076382828561069f565b600060209050601f8311600181146107965760008415610784578287015190505b61078e8582610710565b8655506107f6565b601f1984166107a486610576565b60005b828110156107cc578489015182556001820191506020850194506020810190506107a7565b868310156107e957848901516107e5601f8916826106f2565b8355505b6001600288020188555050505b505050505050565b600073ffffffffffffffffffffffffffffffffffffffff82169050919050565b6000610829826107fe565b9050919050565b6108398161081e565b82525050565b60006020820190506108546000830184610830565b92915050565b7f4e487b7100000000000000000000000000000000000000000000000000000000600052601160045260246000fd5b60008160011c9050919050565b6000808291508390505b60018511156108e0578086048111156108bc576108bb61085a565b5b60018516156108cb5780820291505b80810290506108d985610889565b94506108a0565b94509492505050565b6000826108f957600190506109b5565b8161090757600090506109b5565b816001811461091d576002811461092757610956565b60019150506109b5565b60ff8411156109395761093861085a565b5b8360020a9150848211156109505761094f61085a565b5b506109b5565b5060208310610133831016604e8410600b841016171561098b5782820a9050838111156109865761098561085a565b5b6109b5565b6109988484846001610896565b925090508184048111156109af576109ae61085a565b5b81810290505b9392505050565b600060ff82169050919050565b60006109d4826105fa565b91506109df836109bc565b9250610a0c7fffffffffffffffffffffffffffffffffffffffffffffffffffffffffffffffff84846108e9565b905092915050565b6000610a1f826105fa565b9150610a2a836105fa565b9250828202610a38816105fa565b91508282048414831517610a4f57610a4e61085a565b5b5092915050565b6000610a61826105fa565b9150610a6c836105fa565b9250828201905080821115610a8457610a8361085a565b5b92915050565b610a93816105fa565b82525050565b6000606082019050610aae6000830186610830565b610abb6020830185610a8a565b610ac86040830184610a8a565b949350505050565b6000602082019050610ae56000830184610a8a565b92915050565b61157280610afa6000396000f3fe608060405234801561001057600080fd5b50600436106100ea5760003560e01c8063715018a61161008c578063a9059cbb11610066578063a9059cbb1461023b578063bb06c5761461026b578063dd62ed3e14610287578063f2fde38b146102b7576100ea565b8063715018a6146101f55780638da5cb5b146101ff57806395d89b411461021d576100ea565b806323b872dd116100c857806323b872dd1461015b578063313ce5671461018b57806340c10f19146101a957806370a08231146101c5576100ea565b806306fdde03146100ef578063095ea7b31461010d57806318160ddd1461013d575b600080fd5b6100f76102d3565b6040516101049190610edb565b60405180910390f35b61012760048036038101906101229190610f96565b610365565b6040516101349190610ff1565b60405180910390f35b610145610388565b604051610152919061101b565b60405180910390f35b61017560048036038101906101709190611036565b610392565b6040516101829190610ff1565b60405180910390f35b6101936103c1565b6040516101a091906110a5565b60405180910390f35b6101c360048036038101906101be9190610f96565b6103ca565b005b6101df60048036038101906101da91906110c0565b6103e0565b6040516101ec919061101b565b60405180910390f35b6101fd610428565b005b61020761043c565b60405161021491906110fc565b60405180910390f35b610225610466565b6040516102329190610edb565b60405180910390f35b61025560048036038101906102509190610f96565b6104f8565b6040516102629190610ff1565b60405180910390f35b61028560048036038101906102809190611117565b61051b565b005b6102a1600480360381019061029c9190611144565b6105d0565b6040516102ae919061101b565b60405180910390f35b6102d160048036038101906102cc91906110c0565b610657565b005b6060600380546102e2906111b3565b80601f016020809104026020016040519081016040528092919081815260200182805461030e906111b3565b801561035b5780601f106103305761010080835404028352916020019161035b565b820191906000526020600020905b81548152906001019060200180831161033e57829003601f168201915b5050505050905090565b6000806103706106dd565b905061037d8185856106e5565b600191505092915050565b6000600254905090565b60008061039d6106dd565b90506103aa8582856106f7565b6103b585858561078c565b60019150509392505050565b60006006905090565b6103d2610880565b6103dc8282610907565b5050565b60008060008373ffffffffffffffffffffffffffffffffffffffff1673ffffffffffffffffffffffffffffffffffffffff168152602001908152602001600020549050919050565b610430610880565b61043a6000610989565b565b6000600560009054906101000a900473ffffffffffffffffffffffffffffffffffffffff16905090565b606060048054610475906111b3565b80601f01602080910402602001604051908101604052809291908181526020018280546104a1906111b3565b80156104ee5780601f106104c3576101008083540402835291602001916104ee565b820191906000526020600020905b8154815290600101906020018083116104d157829003601f168201915b5050505050905090565b6000806105036106dd565b905061051081858561078c565b600191505092915050565b6000811161055e576040517f08c379a000000000000000000000000000000000000000000000000000000000815260040161055590611230565b60405180910390fd5b620186a08111156105a4576040517f08c379a000000000000000000000000000000000000000000000000000000000815260040161059b906112c2565b60405180910390fd5b6105cd30336105b16103c1565b600a6105bd9190611444565b846105c8919061148f565b61078c565b50565b6000600160008473ffffffffffffffffffffffffffffffffffffffff1673ffffffffffffffffffffffffffffffffffffffff16815260200190815260200160002060008373ffffffffffffffffffffffffffffffffffffffff1673ffffffffffffffffffffffffffffffffffffffff16815260200190815260200160002054905092915050565b61065f610880565b600073ffffffffffffffffffffffffffffffffffffffff168173ffffffffffffffffffffffffffffffffffffffff16036106d15760006040517f1e4fbdf70000000000000000000000000000000000000000000000000000000081526004016106c891906110fc565b60405180910390fd5b6106da81610989565b50565b600033905090565b6106f28383836001610a4f565b505050565b600061070384846105d0565b90507fffffffffffffffffffffffffffffffffffffffffffffffffffffffffffffffff8110156107865781811015610776578281836040517ffb8f41b200000000000000000000000000000000000000000000000000000000815260040161076d939291906114d1565b60405180910390fd5b61078584848484036000610a4f565b5b50505050565b600073ffffffffffffffffffffffffffffffffffffffff168373ffffffffffffffffffffffffffffffffffffffff16036107fe5760006040517f96c6fd1e0000000000000000000000000000000000000000000000000000000081526004016107f591906110fc565b60405180910390fd5b600073ffffffffffffffffffffffffffffffffffffffff168273ffffffffffffffffffffffffffffffffffffffff16036108705760006040517fec442f0500000000000000000000000000000000000000000000000000000000815260040161086791906110fc565b60405180910390fd5b61087b838383610c26565b505050565b6108886106dd565b73ffffffffffffffffffffffffffffffffffffffff166108a661043c565b73ffffffffffffffffffffffffffffffffffffffff1614610905576108c96106dd565b6040517f118cdaa70000000000000000000000000000000000000000000000000000000081526004016108fc91906110fc565b60405180910390fd5b565b600073ffffffffffffffffffffffffffffffffffffffff168273ffffffffffffffffffffffffffffffffffffffff16036109795760006040517fec442f0500000000000000000000000000000000000000000000000000000000815260040161097091906110fc565b60405180910390fd5b61098560008383610c26565b5050565b6000600560009054906101000a900473ffffffffffffffffffffffffffffffffffffffff16905081600560006101000a81548173ffffffffffffffffffffffffffffffffffffffff021916908373ffffffffffffffffffffffffffffffffffffffff1602179055508173ffffffffffffffffffffffffffffffffffffffff168173ffffffffffffffffffffffffffffffffffffffff167f8be0079c531659141344cd1fd0a4f28419497f9722a3daafe3b4186f6b6457e060405160405180910390a35050565b600073ffffffffffffffffffffffffffffffffffffffff168473ffffffffffffffffffffffffffffffffffffffff1603610ac15760006040517fe602df05000000000000000000000000000000000000000000000000000000008152600401610ab891906110fc565b60405180910390fd5b600073ffffffffffffffffffffffffffffffffffffffff168373ffffffffffffffffffffffffffffffffffffffff1603610b335760006040517f94280d62000000000000000000000000000000000000000000000000000000008152600401610b2a91906110fc565b60405180910390fd5b81600160008673ffffffffffffffffffffffffffffffffffffffff1673ffffffffffffffffffffffffffffffffffffffff16815260200190815260200160002060008573ffffffffffffffffffffffffffffffffffffffff1673ffffffffffffffffffffffffffffffffffffffff168152602001908152602001600020819055508015610c20578273ffffffffffffffffffffffffffffffffffffffff168473ffffffffffffffffffffffffffffffffffffffff167f8c5be1e5ebec7d5bd14f71427d1e84f3dd0314c0f7b2291e5b200ac8c7c3b92584604051610c17919061101b565b60405180910390a35b50505050565b600073ffffffffffffffffffffffffffffffffffffffff168373ffffffffffffffffffffffffffffffffffffffff1603610c78578060026000828254610c6c9190611508565b92505081905550610d4b565b60008060008573ffffffffffffffffffffffffffffffffffffffff1673ffffffffffffffffffffffffffffffffffffffff16815260200190815260200160002054905081811015610d04578381836040517fe450d38c000000000000000000000000000000000000000000000000000000008152600401610cfb939291906114d1565b60405180910390fd5b8181036000808673ffffffffffffffffffffffffffffffffffffffff1673ffffffffffffffffffffffffffffffffffffffff16815260200190815260200160002081905550505b600073ffffffffffffffffffffffffffffffffffffffff168273ffffffffffffffffffffffffffffffffffffffff1603610d945780600260008282540392505081905550610de1565b806000808473ffffffffffffffffffffffffffffffffffffffff1673ffffffffffffffffffffffffffffffffffffffff168152602001908152602001600020600082825401925050819055505b8173ffffffffffffffffffffffffffffffffffffffff168373ffffffffffffffffffffffffffffffffffffffff167fddf252ad1be2c89b69c2b068fc378daa952ba7f163c4a11628f55a4df523b3ef83604051610e3e919061101b565b60405180910390a3505050565b600081519050919050565b600082825260208201905092915050565b60005b83811015610e85578082015181840152602081019050610e6a565b60008484015250505050565b6000601f19601f8301169050919050565b6000610ead82610e4b565b610eb78185610e56565b9350610ec7818560208601610e67565b610ed081610e91565b840191505092915050565b60006020820190508181036000830152610ef58184610ea2565b905092915050565b600080fd5b600073ffffffffffffffffffffffffffffffffffffffff82169050919050565b6000610f2d82610f02565b9050919050565b610f3d81610f22565b8114610f4857600080fd5b50565b600081359050610f5a81610f34565b92915050565b6000819050919050565b610f7381610f60565b8114610f7e57600080fd5b50565b600081359050610f9081610f6a565b92915050565b60008060408385031215610fad57610fac610efd565b5b6000610fbb85828601610f4b565b9250506020610fcc85828601610f81565b9150509250929050565b60008115159050919050565b610feb81610fd6565b82525050565b60006020820190506110066000830184610fe2565b92915050565b61101581610f60565b82525050565b6000602082019050611030600083018461100c565b92915050565b60008060006060848603121561104f5761104e610efd565b5b600061105d86828701610f4b565b935050602061106e86828701610f4b565b925050604061107f86828701610f81565b9150509250925092565b600060ff82169050919050565b61109f81611089565b82525050565b60006020820190506110ba6000830184611096565b92915050565b6000602082840312156110d6576110d5610efd565b5b60006110e484828501610f4b565b91505092915050565b6110f681610f22565b82525050565b600060208201905061111160008301846110ed565b92915050565b60006020828403121561112d5761112c610efd565b5b600061113b84828501610f81565b91505092915050565b6000806040838503121561115b5761115a610efd565b5b600061116985828601610f4b565b925050602061117a85828601610f4b565b9150509250929050565b7f4e487b7100000000000000000000000000000000000000000000000000000000600052602260045260246000fd5b600060028204905060018216806111cb57607f821691505b6020821081036111de576111dd611184565b5b50919050565b7f446f206e6f742073656e64207a65726f206f72206e756c6c2076616c75657300600082015250565b600061121a601f83610e56565b9150611225826111e4565b602082019050919050565b600060208201905081810360008301526112498161120d565b9050919050565b7f41206d6178696d756d206f66203130302c30303020555344542063616e20626560008201527f207265717565737465642e000000000000000000000000000000000000000000602082015250565b60006112ac602b83610e56565b91506112b782611250565b604082019050919050565b600060208201905081810360008301526112db8161129f565b9050919050565b7f4e487b7100000000000000000000000000000000000000000000000000000000600052601160045260246000fd5b60008160011c9050919050565b6000808291508390505b600185111561136857808604811115611344576113436112e2565b5b60018516156113535780820291505b808102905061136185611311565b9450611328565b94509492505050565b600082611381576001905061143d565b8161138f576000905061143d565b81600181146113a557600281146113af576113de565b600191505061143d565b60ff8411156113c1576113c06112e2565b5b8360020a9150848211156113d8576113d76112e2565b5b5061143d565b5060208310610133831016604e8410600b84101617156114135782820a90508381111561140e5761140d6112e2565b5b61143d565b611420848484600161131e565b92509050818404811115611437576114366112e2565b5b81810290505b9392505050565b600061144f82610f60565b915061145a83611089565b92506114877fffffffffffffffffffffffffffffffffffffffffffffffffffffffffffffffff8484611371565b905092915050565b600061149a82610f60565b91506114a583610f60565b92508282026114b381610f60565b915082820484148315176114ca576114c96112e2565b5b5092915050565b60006060820190506114e660008301866110ed565b6114f3602083018561100c565b611500604083018461100c565b949350505050565b600061151382610f60565b915061151e83610f60565b9250828201905080821115611536576115356112e2565b5b9291505056fea2646970667358221220126c1cfcecff97ecdf48dd9534822386c61676fdc26fe5f9772320158ad48fd064736f6c634300081c0033",
  "linkReferences": {},
  "deployedLinkReferences": {}
}