{
  "_format": "hh-sol-artifact-1",
  "contractName": "Pool",
  "sourceName": "contracts/Pool.sol",
  "abi": [
    {
      "inputs": [
        {
          "internalType": "address",
          "name": "_tokenA",
          "type": "address"
        },
        {
          "internalType": "address",
          "name": "_tokenB",
          "type": "address"
        }
      ],
      "stateMutability": "nonpayable",
      "type": "constructor"
    },
    {
      "anonymous": false,
      "inputs": [
        {
          "indexed": true,
          "internalType": "address",
          "name": "provider",
          "type": "address"
        },
        {
          "indexed": false,
          "internalType": "uint256",
          "name": "amountA",
          "type": "uint256"
        },
        {
          "indexed": false,
          "internalType": "uint256",
          "name": "amountB",
          "type": "uint256"
        }
      ],
      "name": "LiquidityAdded",
      "type": "event"
    },
    {
      "anonymous": false,
      "inputs": [
        {
          "indexed": true,
          "internalType": "address",
          "name": "swapper",
          "type": "address"
        },
        {
          "indexed": false,
          "internalType": "address",
          "name": "inputToken",
          "type": "address"
        },
        {
          "indexed": false,
          "internalType": "uint256",
          "name": "inputAmount",
          "type": "uint256"
        },
        {
          "indexed": false,
          "internalType": "address",
          "name": "outputToken",
          "type": "address"
        },
        {
          "indexed": false,
          "internalType": "uint256",
          "name": "outputAmount",
          "type": "uint256"
        }
      ],
      "name": "Swap",
      "type": "event"
    },
    {
      "inputs": [
        {
          "internalType": "uint256",
          "name": "amountA",
          "type": "uint256"
        },
        {
          "internalType": "uint256",
          "name": "amountB",
          "type": "uint256"
        }
      ],
      "name": "addLiquidity",
      "outputs": [],
      "stateMutability": "nonpayable",
      "type": "function"
    },
    {
      "inputs": [],
      "name": "getReserves",
      "outputs": [
        {
          "internalType": "uint256",
          "name": "",
          "type": "uint256"
        },
        {
          "internalType": "uint256",
          "name": "",
          "type": "uint256"
        }
      ],
      "stateMutability": "view",
      "type": "function"
    },
    {
      "inputs": [],
      "name": "reserveA",
      "outputs": [
        {
          "internalType": "uint256",
          "name": "",
          "type": "uint256"
        }
      ],
      "stateMutability": "view",
      "type": "function"
    },
    {
      "inputs": [],
      "name": "reserveB",
      "outputs": [
        {
          "internalType": "uint256",
          "name": "",
          "type": "uint256"
        }
      ],
      "stateMutability": "view",
      "type": "function"
    },
    {
      "inputs": [
        {
          "internalType": "address",
          "name": "inputToken",
          "type": "address"
        },
        {
          "internalType": "uint256",
          "name": "inputAmount",
          "type": "uint256"
        }
      ],
      "name": "swap",
      "outputs": [],
      "stateMutability": "nonpayable",
      "type": "function"
    },
    {
      "inputs": [],
      "name": "tokenA",
      "outputs": [
        {
          "internalType": "contract IERC20",
          "name": "",
          "type": "address"
        }
      ],
      "stateMutability": "view",
      "type": "function"
    },
    {
      "inputs": [],
      "name": "tokenB",
      "outputs": [
        {
          "internalType": "contract IERC20",
          "name": "",
          "type": "address"
        }
      ],
      "stateMutability": "view",
      "type": "function"
    }
  ],
  "bytecode": "0x608060405234801561001057600080fd5b506040516113ec3803806113ec8339818101604052810190610032919061011d565b816000806101000a81548173ffffffffffffffffffffffffffffffffffffffff021916908373ffffffffffffffffffffffffffffffffffffffff16021790555080600160006101000a81548173ffffffffffffffffffffffffffffffffffffffff021916908373ffffffffffffffffffffffffffffffffffffffff160217905550505061015d565b600080fd5b600073ffffffffffffffffffffffffffffffffffffffff82169050919050565b60006100ea826100bf565b9050919050565b6100fa816100df565b811461010557600080fd5b50565b600081519050610117816100f1565b92915050565b60008060408385031215610134576101336100ba565b5b600061014285828601610108565b925050602061015385828601610108565b9150509250929050565b6112808061016c6000396000f3fe608060405234801561001057600080fd5b506004361061007d5760003560e01c80635f64b55b1161005b5780635f64b55b146100dd5780639cd441da146100fb578063d004f0f714610117578063dc5fa6c5146101335761007d565b80630902f1ac146100825780630fc63d10146100a157806319e36f3b146100bf575b600080fd5b61008a610151565b6040516100989291906109dc565b60405180910390f35b6100a9610162565b6040516100b69190610a84565b60405180910390f35b6100c7610186565b6040516100d49190610a9f565b60405180910390f35b6100e561018c565b6040516100f29190610a84565b60405180910390f35b61011560048036038101906101109190610aeb565b6101b2565b005b610131600480360381019061012c9190610b69565b6104bd565b005b61013b6109bd565b6040516101489190610a9f565b60405180910390f35b600080600254600354915091509091565b60008054906101000a900473ffffffffffffffffffffffffffffffffffffffff1681565b60035481565b600160009054906101000a900473ffffffffffffffffffffffffffffffffffffffff1681565b6000821180156101c25750600081115b610201576040517f08c379a00000000000000000000000000000000000000000000000000000000081526004016101f890610c2c565b60405180910390fd5b600060025411801561021557506000600354115b1561027757600254816102289190610c7b565b600354836102369190610c7b565b14610276576040517f08c379a000000000000000000000000000000000000000000000000000000000815260040161026d90610d2f565b60405180910390fd5b5b60008054906101000a900473ffffffffffffffffffffffffffffffffffffffff1673ffffffffffffffffffffffffffffffffffffffff166323b872dd3330856040518463ffffffff1660e01b81526004016102d493929190610d5e565b6020604051808303816000875af11580156102f3573d6000803e3d6000fd5b505050506040513d601f19601f820116820180604052508101906103179190610dcd565b610356576040517f08c379a000000000000000000000000000000000000000000000000000000000815260040161034d90610e46565b60405180910390fd5b600160009054906101000a900473ffffffffffffffffffffffffffffffffffffffff1673ffffffffffffffffffffffffffffffffffffffff166323b872dd3330846040518463ffffffff1660e01b81526004016103b593929190610d5e565b6020604051808303816000875af11580156103d4573d6000803e3d6000fd5b505050506040513d601f19601f820116820180604052508101906103f89190610dcd565b610437576040517f08c379a000000000000000000000000000000000000000000000000000000000815260040161042e90610eb2565b60405180910390fd5b81600260008282546104499190610ed2565b9250508190555080600360008282546104629190610ed2565b925050819055503373ffffffffffffffffffffffffffffffffffffffff167fac1d76749e5447b7b16f5ab61447e1bd502f3bb4807af3b28e620d1700a6ee4583836040516104b19291906109dc565b60405180910390a25050565b60008111610500576040517f08c379a00000000000000000000000000000000000000000000000000000000081526004016104f790610f78565b60405180910390fd5b60008054906101000a900473ffffffffffffffffffffffffffffffffffffffff1673ffffffffffffffffffffffffffffffffffffffff168273ffffffffffffffffffffffffffffffffffffffff1614806105a75750600160009054906101000a900473ffffffffffffffffffffffffffffffffffffffff1673ffffffffffffffffffffffffffffffffffffffff168273ffffffffffffffffffffffffffffffffffffffff16145b6105e6576040517f08c379a00000000000000000000000000000000000000000000000000000000081526004016105dd90610fe4565b60405180910390fd5b60008060009054906101000a900473ffffffffffffffffffffffffffffffffffffffff1673ffffffffffffffffffffffffffffffffffffffff168373ffffffffffffffffffffffffffffffffffffffff1614905060008161066957600160009054906101000a900473ffffffffffffffffffffffffffffffffffffffff1661068b565b60008054906101000a900473ffffffffffffffffffffffffffffffffffffffff165b90506000826106ba5760008054906101000a900473ffffffffffffffffffffffffffffffffffffffff166106de565b600160009054906101000a900473ffffffffffffffffffffffffffffffffffffffff165b90506000836106ef576003546106f3565b6002545b905060008461070457600254610708565b6003545b90508373ffffffffffffffffffffffffffffffffffffffff166323b872dd3330896040518463ffffffff1660e01b815260040161074793929190610d5e565b6020604051808303816000875af1158015610766573d6000803e3d6000fd5b505050506040513d601f19601f8201168201806040525081019061078a9190610dcd565b6107c9576040517f08c379a00000000000000000000000000000000000000000000000000000000081526004016107c090611050565b60405180910390fd5b600086836107d79190610ed2565b82886107e39190610c7b565b6107ed919061109f565b905060008111610832576040517f08c379a00000000000000000000000000000000000000000000000000000000081526004016108299061111c565b60405180910390fd5b8373ffffffffffffffffffffffffffffffffffffffff1663a9059cbb33836040518363ffffffff1660e01b815260040161086d92919061113c565b6020604051808303816000875af115801561088c573d6000803e3d6000fd5b505050506040513d601f19601f820116820180604052508101906108b09190610dcd565b6108ef576040517f08c379a00000000000000000000000000000000000000000000000000000000081526004016108e6906111b1565b60405180910390fd5b851561092c5786600260008282546109079190610ed2565b92505081905550806003600082825461092091906111d1565b9250508190555061095f565b866003600082825461093e9190610ed2565b92505081905550806002600082825461095791906111d1565b925050819055505b3373ffffffffffffffffffffffffffffffffffffffff167f5380cf97d8f645d3c4896da60c053458dca03a3a31cec642ac80e1ddf0d8d02a898987856040516109ab9493929190611205565b60405180910390a25050505050505050565b60025481565b6000819050919050565b6109d6816109c3565b82525050565b60006040820190506109f160008301856109cd565b6109fe60208301846109cd565b9392505050565b600073ffffffffffffffffffffffffffffffffffffffff82169050919050565b6000819050919050565b6000610a4a610a45610a4084610a05565b610a25565b610a05565b9050919050565b6000610a5c82610a2f565b9050919050565b6000610a6e82610a51565b9050919050565b610a7e81610a63565b82525050565b6000602082019050610a996000830184610a75565b92915050565b6000602082019050610ab460008301846109cd565b92915050565b600080fd5b610ac8816109c3565b8114610ad357600080fd5b50565b600081359050610ae581610abf565b92915050565b60008060408385031215610b0257610b01610aba565b5b6000610b1085828601610ad6565b9250506020610b2185828601610ad6565b9150509250929050565b6000610b3682610a05565b9050919050565b610b4681610b2b565b8114610b5157600080fd5b50565b600081359050610b6381610b3d565b92915050565b60008060408385031215610b8057610b7f610aba565b5b6000610b8e85828601610b54565b9250506020610b9f85828601610ad6565b9150509250929050565b600082825260208201905092915050565b7f416d6f756e7473206d7573742062652067726561746572207468616e207a657260008201527f6f00000000000000000000000000000000000000000000000000000000000000602082015250565b6000610c16602183610ba9565b9150610c2182610bba565b604082019050919050565b60006020820190508181036000830152610c4581610c09565b9050919050565b7f4e487b7100000000000000000000000000000000000000000000000000000000600052601160045260246000fd5b6000610c86826109c3565b9150610c91836109c3565b9250828202610c9f816109c3565b91508282048414831517610cb657610cb5610c4c565b5b5092915050565b7f4c6971756964697479206d757374206d61696e7461696e20706f6f6c2072617460008201527f696f000000000000000000000000000000000000000000000000000000000000602082015250565b6000610d19602283610ba9565b9150610d2482610cbd565b604082019050919050565b60006020820190508181036000830152610d4881610d0c565b9050919050565b610d5881610b2b565b82525050565b6000606082019050610d736000830186610d4f565b610d806020830185610d4f565b610d8d60408301846109cd565b949350505050565b60008115159050919050565b610daa81610d95565b8114610db557600080fd5b50565b600081519050610dc781610da1565b92915050565b600060208284031215610de357610de2610aba565b5b6000610df184828501610db8565b91505092915050565b7f546f6b656e41207472616e73666572206661696c656400000000000000000000600082015250565b6000610e30601683610ba9565b9150610e3b82610dfa565b602082019050919050565b60006020820190508181036000830152610e5f81610e23565b9050919050565b7f546f6b656e42207472616e73666572206661696c656400000000000000000000600082015250565b6000610e9c601683610ba9565b9150610ea782610e66565b602082019050919050565b60006020820190508181036000830152610ecb81610e8f565b9050919050565b6000610edd826109c3565b9150610ee8836109c3565b9250828201905080821115610f0057610eff610c4c565b5b92915050565b7f496e70757420616d6f756e74206d75737420626520677265617465722074686160008201527f6e207a65726f0000000000000000000000000000000000000000000000000000602082015250565b6000610f62602683610ba9565b9150610f6d82610f06565b604082019050919050565b60006020820190508181036000830152610f9181610f55565b9050919050565b7f496e76616c696420696e70757420746f6b656e00000000000000000000000000600082015250565b6000610fce601383610ba9565b9150610fd982610f98565b602082019050919050565b60006020820190508181036000830152610ffd81610fc1565b9050919050565b7f496e70757420746f6b656e207472616e73666572206661696c65640000000000600082015250565b600061103a601b83610ba9565b915061104582611004565b602082019050919050565b600060208201905081810360008301526110698161102d565b9050919050565b7f4e487b7100000000000000000000000000000000000000000000000000000000600052601260045260246000fd5b60006110aa826109c3565b91506110b5836109c3565b9250826110c5576110c4611070565b5b828204905092915050565b7f4f757470757420616d6f756e7420697320746f6f20736d616c6c000000000000600082015250565b6000611106601a83610ba9565b9150611111826110d0565b602082019050919050565b60006020820190508181036000830152611135816110f9565b9050919050565b60006040820190506111516000830185610d4f565b61115e60208301846109cd565b9392505050565b7f4f757470757420746f6b656e207472616e73666572206661696c656400000000600082015250565b600061119b601c83610ba9565b91506111a682611165565b602082019050919050565b600060208201905081810360008301526111ca8161118e565b9050919050565b60006111dc826109c3565b91506111e7836109c3565b92508282039050818111156111ff576111fe610c4c565b5b92915050565b600060808201905061121a6000830187610d4f565b61122760208301866109cd565b6112346040830185610d4f565b61124160608301846109cd565b9594505050505056fea264697066735822122027a1c0f4029c901c483029e1246eb4a9c1bbab50250b9806fa243db9182ed3da64736f6c634300081c0033",
  "linkReferences": {},
  "deployedLinkReferences": {}
}